:100000000C94B4050C94D1050C94D1050C94D10535
:100010000C94D1050C94D1050C94D1050C94D10508
:100020000C94D1050C94D1050C94D1050C94D105F8
:100030000C94D1050C94D1050C94D1050C94D105E8
:100040000C94D1050C94D1050C94D2070C94D105D5
:100050000C94D1050C94D1050C94D1050C94D105C8
:100060000C94D1050C94D105650EC70F840E450F75
:10007000520E880FC70FA00EC70FC70FC70FAA0FCA
:10008000270FC70FC70F6A0F030FC70F700E790E28
:10009000C70FC70FC70FC70FD30EE90EFFC08100F0
:1000A000010081C07EFFFFFFFFFFFF7EEFDFBF008B
:1000B00000BFDFEFEFDFBF00FFFFFFFFC3810000E6
:1000C000000099DBC3810000000081C3DB990000C0
:1000D000000081C3C3810000000081C3FFFFFFFF58
:1000E000FFFFFFFFFFFFFFFFFFFFFFFFFFFFFFFF20
:1000F000FFFFFFFFFFFFFFFFFFFFFFFFFFFFFFFF10
:10010000FFFFFFFFFFFFFFFFFFFFFFFFFFFFFFFFFF
:10011000FFFFFFFFFFFFFFFFFFFFFFFFFFFFFFFFEF
:10049000FFFFFFFFFFFFFFFFFFFFFFFF003F429156
:1004A0008291423F8100000000000081102040FF47
:1004B000FF402010102040FF000000003C4281A1BE
:1004C000899966243C4281A181894A3C24669989A4
:1004D000A181423C3C4A8981A181423CFFFFFFFF50
:1004E000FFFFFFFFFFFFFFFFFFFFFFFFFFFFFFFF1C
:1004F000FFFFFFFFFFFFFFFFFFFFFFFFFFFFFFFF0C
:10050000FFFFFFFFFFFFFFFFFFFFFFFFFFFFFFFFFB
:10051000FFFFFFFFFFFFFFFFFFFFFFFFFFFFFFFFEB
:10089000FFFFFFFFFFFFFFFFFFFFFFFF80C0400CD8
:1008A0003EFEF2E0F0E0FF7F3F1F1F1F1F0F070318
:1008B0000000000000006F6F000000070007001438
:1008C0007F147F1400266B2A104333086463324D73
:1008D0004936500000070000001C22410000412260
:1008E0001C00110A1F0A1110107C10100000A060DB
:1008F0000010101010100000606000403008060169
:100900003E5149453E00427F4000426151494622E6
:1009100041494936080C0A7F0827454545393C4A74
:1009200049493001611907013649494936064949A3
:10093000291E00006C6C000000AC6C000814224101
:100940000014141414140041221408020151090661
:100950003E415D5D467C1211127C7F494949363E1D
:10096000414141227F4141413E7F494949417F09FF
:100970000909013E414151727F0808087F41417FCA
:10098000414121413F01017F081422417F40404005
:10099000407F0204027F7F0608307F3E4141413E96
:1009A0007F090909063E4141617E7F0919294626D2
:1009B0004949493201017F01013F4040403F1F202A
:1009C00040201F3F4030403F631408146303047805
:1009D0000403615149454300007F410000000000CD
:1009E00000010608304004020102048080808080FB
:1009F000010204000020545454787F48444438389D
:100A000044444428384444487F3854545418087E99
:100A100009010218A4A4A4787F0808087000487A85
:100A20004000408080887A7F1010284400417F4039
:100A3000007C043804787C04040478384444443846
:100A4000FC24242418182424FC807C08040408486E
:100A50005454542000083C48203C4040407C0C301A
:100A600040300C1C6018601C44281028441CA0A0B6
:100A7000A07C4464544C4400083641412040FF406F
:100A800020414136080010081810084F0B310B07A1
:100A90000BE70ACC0A970A556E6465722074686584
:100AA0002063697263756D7374616E6365732C2066
:100AB00049277665206265656E2053484F434B4950
:100AC0004E474C59206E6963652E0000457863657A
:100AD00070742049207761736E2774206C6175678C
:100AE00068696E672E00004F6820686F7720776511
:100AF000206C61756768656420616E64206C617547
:100B00006768656421000052656D656D62657220DD
:100B1000686F7720796F7520747269656420746FCF
:100B2000206B696C6C206D652074776963653F008C
:100B3000004974277320616C776179732073756342
:100B400068206120706C6561737572652E000057B6
:100B5000656C6C2068657265207765206172652020
:100B6000616761696E2E000011241FBECFEFD4E0D3
:100B7000DEBFCDBF11E0A0E0B1E0EAE5F3E202C0E4
:100B800005900D92A230B107D9F722E0A2E0B1E0C2
:100B900001C01D92A031B207E1F70E9405110C942B
:100BA000AB110C94000082E38093800089E1809374
:100BB000810084E690E090938700809386000E94F5
:100BC000031090E090938B0080938A0008954198E1
:100BD00085E08A95F1F70000429885E08A95F1F763
:100BE00000000E942B0E429A98B19B6098B908951C
:100BF0000E94E7058370E1F30895CF93C82F0E9408
:100C0000F8058C2F0E94150E439885E08A95F1F720
:100C1000000088B18A7F88B985E08A95F1F70000E5
:100C2000429A88B18B6088B9CF9108950E94F805E7
:100C3000439885E08A95F1F7000088B1897F88B9EB
:100C400085E08A95F1F700000E942B0E429A98B138
:100C50009B6098B90895CF93C82F0E94F8058C2FF8
:100C60000E94150E85E08A95F1F70000409885E016
:100C70008A95F1F70000429885E08A95F1F7000027
:100C8000429A88B18B6088B9CF910895CF93DF9352
:100C9000869586958695C82FD0E084E1689FC00D23
:100CA000D11D11248C2F0E94FD058D2F0E94FD0562
:100CB00084E2DF91CF910C942B06CF93DF9360E019
:100CC00080E00E944606C0E0DAE0809103018823BC
:100CD00011F08FEF01C080E00E94FD0580EC0E94C2
:100CE0002B06219791F7DF91CF91089580E00E9424
:100CF000FD0580E00E94FD0582E40E942B0684E150
:100D00000E94FD0580E00E94FD0583E40E942B0601
:100D100080E80E942B0688E90C942B06806F862BB6
:100D20000C942B06CF93DF93C82FD42F0E94460636
:100D30008C2F8095877090910301992319F0D11120
:100D400003C004C0D11102C0886F01C0806FDF9161
:100D5000CF910C942B067F928F929F92AF92BF926D
:100D6000CF92DF92EF92FF920F931F93CF93DF9377
:100D7000CDB7DEB728970FB6F894DEBF0FBECDBF54
:100D8000982E862E5A01CE0101967C01D12C992DE8
:100D90009770C92E08E010E0091B1109682D6D0D30
:100DA000892D0E94460681EC0E942B060E941606A1
:100DB000782E85EC0E942B060E941606282F30E024
:100DC000002E02C0359527950A94E2F70C2C01C03D
:100DD000770C0A94EAF72729F70121937F01D3942E
:100DE000F8E0DF12DBCFF501B501685F7F4F01E06E
:100DF00010E0DE01119680E090E020E03D91A80136
:100E0000082E01C0440F0A94EAF74323242B0196CD
:100E10008830910599F72193E617F70751F728963F
:100E20000FB6F894DEBF0FBECDBFDF91CF911F91FB
:100E30000F91FF90EF90DF90CF90BF90AF909F9079
:100E40008F907F9008959093C5008093C40082E0B6
:100E50008093C00088E98093C10086E08093C2003F
:100E600008959091C00095FFFCCF8093C60008952F
:100E7000CF93C82FCF7082958F708A3010F4805D29
:100E800001C0895C0E943107CA3010F480E301C0C0
:100E900087E38C0FCF910C9431071F93CF93DF938F
:100EA000282FDAE06D2F0E947C11C92F822F891B19
:100EB00064E60E947C11192F805D0E943107812F0A
:100EC0006D2F0E947C11805D0E94310780E38C0FA2
:100ED000DF91CF911F910C943107CF93DF93D82FDF
:100EE000C8E0D0FF02C081E301C080E30E94310767
:100EF000D695C150B1F7DF91CF910895CF93DF938D
:100F0000EC018991882319F00E943107FACF8AE019
:100F10000E9431078DE0DF91CF910C9431078091D1
:100F2000060190910701209104013091050182177B
:100F3000930708F49395821B930B0895CF938091A8
:100F40000401909105019C012F5F3F4F30930501F3
:100F500020930401FC01E05FFE4FC08180910401F9
:100F6000909105018115914021F410920501109294
:100F700004010E948F07449748F480910201813058
:100F800029F481E10E943107109202018C2FCF9148
:100F90000895109205011092040110920701109219
:100FA000060108951F920F920FB60F9211242F93EE
:100FB0003F934F935F936F937F938F939F93AF93E1
:100FC000BF93EF93FF9380910601909107018115E4
:100FD000914021F4109207011092060180910601C0
:100FE000909107019C012F5F3F4F309307012093A1
:100FF00006012091C600FC01E05FFE4F20830E94A5
:101000008F07873A910530F083E10E94310781E034
:1010100080930201FF91EF91BF91AF919F918F91CA
:101020007F916F915F914F913F912F910F900FBEE4
:101030000F901F90189543982FEF80E792E0215072
:1010400080409040E1F700C00000439A2FEF80E716
:1010500092E0215080409040E1F700C000000895E8
:101060008AE18A95F1F700C0409A8AE18A95F1F702
:1010700000C040988AE18A95F1F700C0089588B1D0
:10108000866388B94098089588B1897F88B98FE3CD
:101090000E94150E0E9430080E94380E0C943F08E2
:1010A00088B1897C88B980EC0E94150E0E943008B6
:1010B0000E94380E0C943F0898B1997F98B980939C
:1010C00009018F7780640E94150E0E9430080E94EB
:1010D000380E0C943F0898B1997F98B98F7B886B34
:1010E0000E94150E0E9430080E94380E0C943F0892
:1010F00090910901903418F498B19B7E02C098B188
:101100009B7D98B90E94150E0E9430080E94380EEF
:101110000E943F08809109018F5F87FD03C0809383
:10112000090108951092090180E00C945C081F9356
:10113000CF93DF939091030181E0913009F080E03B
:10114000D82FD195C0E08C2F0E946B0880E00E94C0
:101150005C0810E08D2F0E9478081F5F1038D1F7CF
:10116000CF5FC83081F780E00E946B0880E0DF919C
:10117000CF911F910C945C08CF93DF93D62FC42F8F
:101180000E945C088D2F8695869586950E946B0837
:10119000809103018111C0958C2FDF91CF910C9428
:1011A0007808CF93803410F4449801C0459885E3C3
:1011B0008A95F1F70000409A85E38A95F1F70000DF
:1011C000409885E38A95F1F70000409A85E38A9577
:1011D000F1F700000E942B0EC82F409885E38A95F6
:1011E000F1F700000E943F088C2FCF9108958F9255
:1011F0009F92BF92CF92DF92EF92FF920F931F9335
:10120000CF93DF93B82ED42E052F862F8770F82E1C
:1012100088E0E82EEF18162F169516951695812F53
:101220000E946B08CD2DD02F4E0100E088E090E0A9
:101230006C01CF18D1088B2D800F0E94D1080C2C87
:1012400001C0880F0A94EAF7F40181934F010F5F00
:10125000083089F781E0810F0E946B08F12C08E0CB
:1012600010E00E1911098B2D8F0D0E94D10890E00E
:10127000002E02C0959587950A94E2F79881892BF4
:101280008993F394F8E0FF12EECFDF91CF911F9195
:101290000F91FF90EF90DF90CF90BF909F908F9035
:1012A00008951F93CF93DF93182FC62FD42F0E943A
:1012B0005C088C2F8695869586950E946B08812FF9
:1012C0000E94D1086C2F677090910301911103C0A7
:1012D000D1110BC002C0D13041F4C1E0D0E001C057
:1012E000CC0F6A95EAF7C82B08C0C1E0D0E001C076
:1012F000CC0F6A95EAF7C095C823812F0E945C083D
:101300008C2FDF91CF911F910C9478088091080168
:1013100081110BC00E941B080E9444080E9497087C
:1013200080E88093010180E406C00E94760680EA8E
:101330008093010180E880930001089580910C0161
:1013400080930E0180910D0180930F0110920B018B
:1013500010920A0180910801811102C00C94970833
:101360000C945D069091080191110AC090910101C1
:10137000891790F490910001691770F40C94510949
:10138000913051F490910101891730F4909100014E
:10139000691710F40C94920608956F927F928F92C1
:1013A0009F92AF92BF92CF92DF92EF92FF920F93F4
:1013B0001F93CF93DF93082FC62F481728F4C22F0F
:1013C000262F802F042F482F041313C02C1718F436
:1013D0008C2FC22F282FD0E0E22EF12CEC16FD0628
:1013E0000CF499C040E06C2F802F0E94B209219626
:1013F000F5CF10E0C42ED12CC2130CC0C016D106FC
:101400000CF489C040E06C2F802F0E94B2090F5F5E
:101410001F4FF4CFE22EF12CD0E0C7018C1B9D0BA7
:101420009601201B310B4C01880C991C5901AA0C08
:10143000BB1C340197FD35C06A187B082817390793
:10144000C4F07401E21AF30AC016D1060CF463C0AA
:1014500040E06C2F802F0E94B2091E141F041CF064
:10146000E80CF91C03C02196E60CF71C0F5F1F4F18
:10147000EBCF6501C81AD90AEC16FD060CF44BC077
:1014800040E06C2F802F0E94B2091C141D041CF038
:10149000CA0CDB1C04C00F5F1F4FC618D70821966B
:1014A000EBCF6A0C7B1C44275527481B590B24178C
:1014B0003507D4F0EE24FF24E818F908E21AF30AFD
:1014C000C016D10644F140E06C2F802F0E94B20973
:1014D0001E141F041CF0E818F90803C02197E61831
:1014E000F7080F5F1F4FECCF6C01CA0CDB1CCE1549
:1014F000DF058CF040E06C2F802F0E94B2091C1495
:101500001D041CF0CA0CDB1C04C00F5F1F4FC60C6F
:10151000D71C2197ECCFDF91CF911F910F91FF90B6
:10152000EF90DF90CF90BF90AF909F908F907F9083
:101530006F900895EF92FF920F931F93CF93DF93D5
:10154000E82E162FC42FD22F482F0E94CD09212F0D
:101550004C2F612F8E2D0E94CD092D2F4E2D6D2FDA
:101560008C2F0E94CD09212F4C2F6D2F8C2F0E9484
:10157000CD09DF91CF911F910F91FF90EF900895CA
:101580004F925F926F927F928F929F92AF92BF9293
:10159000CF92DF92EF92FF920F931F93CF93DF933F
:1015A000082F962EC42FD0E0CE01880F991F21E07E
:1015B00030E07901E81AF90A10E0C12CD12CA12CF5
:1015C000B12C40E0792C710E672D6C2E600E862DAB
:1015D0000E94B20940E05C2E590C652D802E810ED0
:1015E000882D0E94B20940E0672D702E7C1A872D4D
:1015F0000E94B20940E0652D402E411A842D0E94C0
:10160000B20940E0592C511A652D872D0E94B2096C
:1016100040E0792C7C1A672D842D0E94B20940E0AD
:10162000652D862D0E94B20940E0672D882D0E940D
:10163000B209C501880F991FC80ED91E8FEFA81ACD
:10164000B80AC601880F991F8E0D9F1D181619061E
:1016500034F42197CE0CDF1C82E0E80EF11C1F5FF2
:10166000CA15DB050CF0ADCFDF91CF911F910F9123
:10167000FF90EF90DF90CF90BF90AF909F908F90B2
:101680007F906F905F904F900895EF92FF920F932D
:101690001F93CF93DF938830A1F18D3009F09BC069
:1016A0002091010130E02550310990910E014091C7
:1016B0000A0150910B01692F70E09A5FFA0131968F
:1016C0006217730714F4AF01F6CF50930B014093E8
:1016D0000A0190910C0190930E0120910F01285F57
:1016E00020930F0130E04091000150E04750510934
:1016F000241735070CF4F4C090910D0190930F015D
:101700006AC080910A0190910B01009709F4E8C02A
:10171000019790930B0180930A0180910E019091A3
:101720000C01891335C090910F0120910D01921386
:101730001EC02091000130E02850310968E0690F97
:10174000492F50E04217530714F4962FF7CF909388
:101750000F012091010130E02550310996E0980FEA
:10176000482F50E0421753079CF4892FF7CF985029
:1017700090930F012091010130E02550310996E04E
:10178000980F482F50E04217530714F4892FF7CFD2
:10179000865080930E01C0910E0180910E0190E061
:1017A00004962C2F30E0821793070CF499C0D09147
:1017B0000F0180910F0190E007962D2F30E08217E6
:1017C00093073CF041E06D2F8C2F0E94B209DF5F40
:1017D000F0CFCF5FE2CF90EE980F9F3508F080C03A
:1017E00090E0809720910A0130910B012F5F3F4FCD
:1017F00030930B0120930A01C0910E0125E0289F30
:101800008001299F100D11240055174F80910E0162
:10181000282F30E02C5F3F4F4C2F50E02417350726
:101820000CF43CC0F80144918091080181110EC074
:1018300080910101C81770F560910F01809100013E
:10184000681740F58C2F0E94BC0824C0813011F528
:10185000D0910F01E42EF12C20910F0130E08D2F5B
:1018600090E0A901495F5F4F481759079CF0821B20
:10187000930B970102C0359527958A95E2F720FFD3
:1018800002C040E001C041E06D2F8C2F0E94B209E0
:10189000DF5FE2CFCF5F0F5F1F4FB8CF8A5F8093CC
:1018A0000E0190E02091010130E0265031098217AD
:1018B0009307B4F080910C0180930E0180910F0189
:1018C000885F80930F0190E02091000130E0275065
:1018D00031098217930724F080910D0180930F0145
:1018E000DF91CF911F910F91FF90EF900895FF929C
:1018F0000F931F93CF93DF93182FC62F042FF22E31
:10190000481710F4142F082FFC1628F48C2FCF2D15
:10191000F82E01C0CF5FFC1650F0D12F0D17D0F379
:1019200041E06C2F8D2F0E94B209DF5FF7CFDF916E
:10193000CF911F910F91FF900895BF92CF92DF92A8
:10194000EF92FF920F931F93CF93DF93F0900101DB
:10195000F694C6EFCF0D00910001069528EFB22E48
:10196000B00E3CE9C32E38E0D32EDC2FF601E49014
:101970001B2D909103018E2D8170911102C019F0E1
:1019800004C0882311F041E001C040E0612F8D2F99
:101990000E94B209E6941F5F0113EBCFFFEFCF1A4D
:1019A000DF0ADF5FFD12E2CF86EAC82E88E0D82E7C
:1019B00098E0E92EE00EF6011491D02F90910301EA
:1019C000812F8170911102C019F004C0882311F099
:1019D00041E001C040E06D2F8C2F0E94B2091695A6
:1019E000DF5FED12EBCFFFEFCF1ADF0ACF5FFC1204
:1019F000E2CFDF91CF911F910F91FF90EF90DF9099
:101A0000CF90BF90089590910801911102C00C945D
:101A1000F7080C94AB06AF92BF92CF92DF92EF9291
:101A2000FF920F931F93CF93DF93CDB7DEB7289725
:101A30000FB6F894DEBF0FBECDBF182FD62EC22E24
:101A400088E0489F50011124AE014F5F5F4F812F06
:101A50000E94030DFE0131967F01DF01A501950172
:101A6000285F3F4F42175307B0F48091030188234A
:101A700019F08C9180958C93FA01E456FF4F949164
:101A8000FA01E456FB4F8491EC91E923E82BED93A6
:101A90004F5F5F4FE7CFF3E3CF1619F1FC1558F016
:101AA00080E3C812A2C098E0B92EB10EC12EAA24BC
:101AB000AA94AD0C36C096E3C91659F0E9E3CE12EC
:101AC00094C067E0B62EBD0CDA94AA24AA94A10EA5
:101AD00084C047E0B42EB10E115058E0A52EAD0CD5
:101AE0005EC028E0B22EBD0C38E0A32EA10E39C096
:101AF000F7018081011118C080FD18C041E0612FFD
:101B00008C2D0E94B209F701808186958083115047
:101B1000A112EECFFFEFEF1AFF0AC394CB1409F422
:101B200064C017E01D0DE4CF80FDE8CF40E0E7CFB3
:101B3000F7018081011117C080FD17C041E06D2DB4
:101B40008C2D0E94B209F701808186958083C39411
:101B5000AC10EECFFFEFEF1AFF0AD394BD1409F4D7
:101B600044C0C12EE5CF80FDE9CF40E0E8CFF701CA
:101B70008081011116C080FD16C041E06C2D8B2DB7
:101B80000E94B209F701808186958083C394AC10CE
:101B9000EECFFFEFEF1AFF0ABA941B1531F1CD2CEF
:101BA000E6CF80FDEACF40E0E9CFF7018081011167
:101BB00018C080FD18C041E06B2D8C2D0E94B20929
:101BC000F701808186958083CA94AC10EECFFFEF39
:101BD000EF1AFF0ABA94DB1441F087E0C82EC10E59
:101BE000E4CF80FDE8CF40E0E7CF28960FB6F89429
:101BF000DEBF0FBECDBFDF91CF911F910F91FF9040
:101C0000EF90DF90CF90BF90AF9008958FE084B9B0
:101C10008CEF8AB92A9880910801882311F08130CD
:101C200019F48FE387B988B9089594B1936094B992
:101C30009AB19C6F9AB995B19C7F95B99BB19370FD
:101C40009BB995B1282F2370922B95B99BB18C7FAE
:101C5000892B8BB9089584B18C7F84B98AB1837044
:101C60008AB993B129B12C7F892F8370822B089573
:101C700084B18C7F84B98AB183708AB908950F9337
:101C80001F93CF93DF9300D000D01F92CDB7DEB764
:101C900090E08A31910508F07AC1FC01EC5CFF4FBD
:101CA0000C9488110E949E090E94071080910301E4
:101CB00011E08127809303010E949E090E94071072
:101CC000809103011827109303010F900F900F903C
:101CD0000F900F90DF91CF911F910F910C949E095F
:101CE0009091030181E08927809303010E94DF0F17
:101CF000ECCF0F900F900F900F900F90DF91CF913E
:101D00001F910F910C94D10F0E948F07892BE1F343
:101D10000E949E07853608F084E68983898190E0D9
:101D200090938B0080938A0089810F900F900F9081
:101D30000F900F90DF91CF911F910F910C94FE0F98
:101D40000E948F07892BE1F30E949E07182F0E94A3
:101D5000F00F1333A9F040F4113379F0123309F086
:101D600016C18FEC90E00EC01533D1F0B0F01633F1
:101D700009F00DC180E190E005C080EA91E002C069
:101D800087E690E00F900F900F900F900F90DF91EB
:101D9000CF911F910F910C94230783E390E0F2CF32
:101DA00082E290E0EFCF0E948F07892BE1F30E943F
:101DB0009E072091010130E025503109482F50E065
:101DC000421753070CF0E3C080930C0180930E017F
:101DD00015C00E948F07892BE1F30E949E07209176
:101DE000000130E027503109482F50E042175307D7
:101DF0000CF0CDC080930D0180930F0110920B0168
:101E000010920A01C4C010E00E948F07892B61F074
:101E100001E0010F0E949E07E1E0F0E0EC0FFD1FE2
:101E2000E10FF11D8083102F133070F341E08B819F
:101E3000811140E06A8189810F900F900F900F907F
:101E40000F90DF91CF911F910F910C94B20910E088
:101E50000E948F07892B61F001E0010F0E949E070D
:101E6000E1E0F0E0EC0FFD1FE10FF11D8083102F8A
:101E7000153070F301E08D81811100E02C814B81E0
:101E80006A8189810E94CD0982C010E00E948F077B
:101E9000892B61F001E0010F0E949E07E1E0F0E074
:101EA000EC0FFD1FE10FF11D8083102F143070F334
:101EB00021E08C81811120E04B816A8189810F9022
:101EC0000F900F900F900F90DF91CF911F910F9176
:101ED0000C94C00A10E00E948F07892B61F001E08A
:101EE000010F0E949E07E1E0F0E0EC0FFD1FE10F03
:101EF000F11D8083102F153070F301E08D81811169
:101F000000E02C814B816A8189810E949A0A3FC03E
:101F100010E00E948F07892B61F001E0010F0E9401
:101F20009E07E1E0F0E0EC0FFD1FE10FF11D808363
:101F3000102F143070F32C814B816A8189810F90AE
:101F40000F900F900F900F90DF91CF911F910F91F5
:101F50000C94770C10E00E948F07892B61F001E050
:101F6000010F0E949E07E1E0F0E0EC0FFD1FE10F82
:101F7000F11D8083102F153070F301E08D818111E8
:101F800000E02C814B816A8189810E940B0D0F90AA
:101F90000F900F900F900F90DF91CF911F910F91A5
:101FA000089580E090E00E94951161E0682780E04C
:101FB00090E00C949D1180E090E00C94951181E0EC
:101FC00090E00E9495118095682F617081E090E00B
:101FD0000C949D1181E090E00E94951180950895E8
:101FE0009FEC980F963028F4682F82E090E00C94D4
:101FF0009D11089582E090E00C949511682F83E084
:1020000090E00C949D1183E090E00C949511BF92A8
:10201000CF92DF92EF92FF920F931F93CF93DF93B4
:10202000CDB7DEB7C054D1090FB6F894DEBF0FBEEE
:10203000CDBF2BE8E22E2AE0F22E1DEFF7016591CD
:102040007491CE0101960E948E11D12CE1E0F0E056
:10205000EC0FFD1FED0DF11D8081882321F0D3943D
:102060000E94450BF3CF8DE00E94450B2FEF8EE9C8
:1020700094E2215080409040E1F700C0000012300F
:1020800098F42FEF8EE994E2215080409040E1F7E0
:1020900000C000000E949E0910920E018091000174
:1020A0008695885080930F0122E0E20EF11C1F5F9D
:1020B000133009F0C3CFEE24E394F12CDD24D39444
:1020C0002F2D30E08091000190E007972817390705
:1020D000E4F410E0212F30E08091010190E00797B7
:1020E0002817390774F4EE2011F000E001C001E078
:1020F00020E34FE76F2D812F0E940B0DED24185F19
:10210000E9CFED2488E0F80EDBCF9FEF29E688E1E8
:10211000915020408040E1F700C0000012E0809123
:1021200001018695181790F460910001669520E0F2
:10213000412F0E94C00A9FEF24E38CE09150204081
:102140008040E1F700C00000185FE9CFEE24E3947F
:1021500010E0DD24D394212F30E08091000190E045
:102160000797281739070CF03FC0F12C87E0C82EDD
:10217000C10E2F2D30E08091010190E007972817C4
:10218000390784F500E020E3EE2011F044E001C0BF
:1021900045E0612F8F2D0E940B0DED249AE0B92EA2
:1021A000BF0C00E020E340E0612F8B2D0E940B0D5F
:1021B0009FEF23EC89E0915020408040E1F700C080
:1021C000000047E04F0D2C2D612F8F2D0E94770CC2
:1021D00041E14F0D2C2D612F8B2D0E94770C98E043
:1021E000F90EC7CF185FB7CFC05CDF4F0FB6F894BA
:1021F000DEBF0FBECDBFDF91CF911F910F91FF903A
:10220000EF90DF90CF90BF9008952B9A2AE12A9506
:10221000F1F700C01B9B04C081E08093080102C05D
:10222000109208012B980E94060E0E94D30580E1AF
:1022300090E00E94230778940E94EA0F81708093B7
:1022400003010E9486090E949E090E94DB0F80FD07
:102250000E949D0C8FEF93ED20E381509040204031
:10226000E1F700C000000E948F07892B11F50E9442
:10227000FA0F833399F038F4813369F08233E1F453
:102280008FEC90E013C0853379F058F08633A1F4D9
:1022900080E190E00BC080EA91E008C087E690E022
:1022A00005C083E390E002C082E290E00E94230731
:1022B00003C086E30E94F00F0E949E090E94C90796
:1022C0000E948F07892BE1F30E949E078C3749F407
:1022D0000E948F07892BE1F30E949E070E943F0E08
:1022E000EFCF90EE980F9F3520F08D3011F08830B1
:1022F00039F70E94450BE4CF991B79E004C0991F80
:10230000961708F0961B881F7A95C9F7809508954F
:10231000EE0FFF1F0590F491E02D0994FB01DC0105
:1023200005900D920020E1F70895F999FECF92BD36
:1023300081BDF89A992780B50895262FF999FECF87
:102340001FBA92BD81BD20BD0FB6F894FA9AF99AD2
:0A2350000FBE01960895F894FFCF28
:02235A004080C1
:00000001FF
